:100000000C9434000C9451000C9451000C94510049
:100010000C9451000C9451000C9451000C9451001C
:100020000C9451000C9451000C9451000C9451000C
:100030000C9451000C9453000C9451000C945100FA
:100040000C9492010C9451000C9451000C945100AA
:100050000C9451000C9451000C9451000C945100DC
:100060000C9451000C94510011241FBECFEFD8E026
:10007000DEBFCDBF11E0A0E0B1E0E0E8F4E002C0F7
:1000800005900D92A030B107D9F711E0A0E0B1E0E2
:1000900001C01D92A835B107E1F70E948B010C94B5
:1000A0003E020C9400001F920F920FB60F92112483
:1000B0002F933F934F935F936F937F938F939F9370
:1000C000AF93BF93EF93FF9380E2809380001092F1
:1000D0006F0010920001E0910101F0910201309750
:1000E00011F078940995FF91EF91BF91AF919F9195
:1000F0008F917F916F915F914F913F912F910F90D1
:100100000FBE0F901F901895E3E0F1E0108211826E
:100110001282339681E0EB34F807C1F7089580919D
:100120000001882311F081E0089580E2809380002F
:1001300080914C01882319F010924C0102C02D9A35
:100140002D98E3E0F1E080818EBD0DB407FEFDCF78
:1001500081818EBD0DB407FEFDCF828133968EBDA9
:100160000DB407FEFDCF81E0EB34F80761F791E0B5
:100170009093000180EA80938000B09A90936F0082
:1001800080E00895CF93DF93EC01219A229A539A4D
:100190002A9A239A259A229A2D9881E08DBD80E58E
:1001A0008CBDCB0124E0969587952A95E1F7262F03
:1001B0002295207F272BE3E0F1E080832183628377
:1001C000339691E0EB34F907C1F7CE010E948F001E
:1001D00080E28093800010926F0010920001299AB3
:1001E00029988093800080E18093810081E090E0F5
:1001F000909389008093880082E090E090938B0038
:1002000080938A0080E090E290938700809386003C
:1002100083E28093B00088E08093B1001092B40034
:1002200083E08093B3008091B10081608093B1003E
:1002300080918100816080938100CE010E948F00B7
:10024000DF91CF9108959FE2961B83E0989FF00184
:100250001124F695E795ED5FFE4F90FF06C0808173
:10026000807F852B808341830895CA0134E0969571
:1002700087953A95E1F7808381818F70942F9295CD
:10028000907F892B81830895CF93DF938BE491E056
:100290000E948400C0E0D0E080914D0190914E0119
:1002A000C817D90731F48BE491E06C2F40EA5FE086
:1002B00005C08BE491E06C2F40E050E00E942301E8
:1002C0002196C033D10541F780914D0190914E01A7
:1002D000019690934E0180934D018A9721F41092DC
:1002E0004E0110924D018BE491E00E948F006CED65
:1002F00075E080E090E00E94DA01DF91CF910895EF
:1003000010924E0110924D018BE491E060E070E09C
:100310000E94C20008950E9404020E9480010E946F
:100320004401FDCF1F920F920FB60F9211242F930D
:100330003F938F939F93AF93BF938091530190917D
:100340005401A0915501B091560130915701019689
:10035000A11DB11D232F2D5F2D3720F02D570196A4
:10036000A11DB11D20935701809353019093540117
:10037000A0935501B093560180914F019091500187
:10038000A0915101B09152010196A11DB11D809320
:100390004F0190935001A0935101B0935201BF912E
:1003A000AF919F918F913F912F910F900FBE0F9022
:1003B0001F901895EF92FF920F931F937B018C0172
:1003C0008FB7F894409153015091540160915501B9
:1003D000709156018FBF2FB7F8948091530190917F
:1003E0005401A0915501B09156012FBF841B950B6C
:1003F000A60BB70BE816F9060A071B0760F71F9153
:100400000F91FF90EF900895789484B5826084BD39
:1004100084B5816084BD85B5826085BD85B5816008
:1004200085BDEEE6F0E0808181608083E1E8F0E068
:10043000808182608083808181608083E0E8F0E059
:10044000808181608083E1EBF0E080818460808343
:10045000E0EBF0E0808181608083EAE7F0E080817A
:1004600084608083808182608083808181608083DA
:100470008081806880831092C1000895F894FFCF36
:00000001FF
